:03000000020D7C72
:0C0D7C00787FE4F6D8FD75815B020DC3A2
:100EDD00021001D701A3018C0160013A011501082F
:100EED00008BEF3C18A0C00000DB6F3C1828D00031
:100EFD00104B5F3C2848D000534F3C1828489000B9
:100F0D00938FFC382850E00093CF3C3848D0200018
:100F1D00035FBC78C830000000030F7C58E0000070
:100F2D002040090503030004020200010203040529
:100F3D000505000503030004020200010305050376
:100F4D000000000202020202030400030303030374
:100F5D000405000503030004020200010305050159
:0C0F6D00000000010800014900014A00DA
:040FB1008E518F527C
:100FB500E5521552AE5170021551FFEF4E6019758D
:100FC50053037554B6E5541554AE5370021553FFCB
:080FD500EF4E60DC80EF80D8D4
:010FDD0022F1
:100E08008F5BE55B5402FFEFC43354E0FFE55B54AE
:100E180001FEEEC43333335480FEEE4FFFE55B54DE
:100E280004FEEE33333354F8FEEE4FFFE55B54080F
:100E3800FEEE25E0FEEE4FFFE55B5410FEEEC31319
:100E4800FEEE4FFFE55B5420FEEE131313541FFE16
:100E5800EE4FFFE55B5440FEEEC4135407FEEE4F21
:100E6800FFE55B5480FEEEC41313135401FEEE4FEE
:020E7800FF2257
:100B33008F598D5AAF59EF75F008A424EEF582E46E
:100B4300340EF583E493FFAE5AEFA806088002C380
:100B530013D8FCFFEF5401FFEF25E0FFAE59EE750C
:100B6300F008A424EDF582E4340EF583E493FEAD9E
:100B73005AEEA805088002C313D8FCFEEE5401FE0A
:100B8300EF4EFFAE59EE75F008A424EFF582E4347E
:100B93000EF583E493FEAD5AEEA805088002C31355
:100BA300D8FCFEEE5401FEEE25E025E0FEEE4FFFFD
:100BB300AE59EE75F008A424F0F582E4340EF58303
:100BC300E493FEAD5AEEA805088002C313D8FCFED9
:100BD300EE5401FEEE33333354F8FEEE4FFFAE59BD
:100BE300EE75F008A424F1F582E4340EF583E49362
:100BF300FEAD5AEEA805088002C313D8FCFEEE54DE
:100C030001FEEEC454F0FEEE4FFFAE59EE75F00850
:100C1300A424F2F582E4340EF583E493FEAD5AEE98
:100C2300A805088002C313D8FCFEEE5401FEEEC4EF
:100C33003354E0FEEE4FFFAE59EE75F008A424F3F3
:100C4300F582E4340EF583E493FEAD5AEEA805086D
:100C53008002C313D8FCFEEE5401FEEEC4333354BA
:100C6300C0FEEE4FFFAE59EE75F008A424F4F582F2
:100C7300E4340EF583E493FEAD5AEEA80508800232
:100C8300C313D8FCFEEE5401FEEEC4333333548059
:050C9300FEEE4FFF2200
:1008000075550AE549120F8B083000085301087628
:100810000208990308BC0408ED0509100609410700
:1008200009640809E3090A4A0A0AC50B00000B23F8
:1008300075E8FE7580FEAFE87801EF08800123D8E7
:10084000FDFF8FE8AF557E00120FB1E5E8B47FE6FB
:10085000020B2375E87F7580FEAF807801EF08807A
:100860000123D8FDFF8F80AF557E00120FB1E580C8
:10087000B47FE6020B2375E87F75807FAFE87801CF
:10088000EF08800103D8FDFF8FE8AF557E00120FFF
:10089000B1E5E8B4FEE6020B2375E8FE75807FAF94
:1008A000807801EF08800103D8FDFF8F80AF557E6F
:1008B00000120FB1E580B4FEE6020B2375E8FE7569
:1008C00080FEAF807801EF08800123D8FDFF8F8084
:1008D000AFE87801EF08800123D8FDFF8FE8AF551E
:1008E0007E00120FB1E580B47FD8020B2375E87F3C
:1008F00075807FAFE87801EF08800103D8FDFF8F96
:10090000E8AF557E00120FB1E5E8B4FEE6020B2316
:1009100075E8FE75807FAF807801EF08800103D80D
:10092000FDFF8F80AFE87801EF08800123D8FDFF3D
:100930008FE8AF557E00120FB1E580B4FED8020BF0
:100940002375E87F7580FEAFE87801EF088001032A
:10095000D8FDFF8FE8AF557E00120FB1E5E8B4FE79
:10096000E6020B2375E8FE755500E555C394044077
:1009700003020B23755700E557C39408505E755862
:1009800000E558C3940A5050755600E556C39408C4
:100990005042AF56AE57EE75F008A424EDF582E450
:1009A000340EF583E5822FF582E43583F583E493F5
:1009B000FF120E08EFF4F5807F017E00120FB17573
:1009C00080FFAFE87801EF08800123D8FDFF8FE8B2
:1009D000055680B7055880A90557809B0555808A24
:1009E000020B2375E87F755500E555C39404400359
:1009F000020B23755700E557C394085046755800FD
:100A0000E558C3940A5038755600E556C39408500B
:100A10002AAD56AF57120B33120E08EFF4F5807F54
:100A2000017E00120FB17580FFAFE87801EF0880FA
:100A30000103D8FDFF8FE8055680CF055880C1051A
:100A40005780B3055580A2020B2375E87F755500CA
:100A5000E555C394044003020B23755700E557C3C3
:100A60009408505B755800E558C3940A504D75566C
:100A700000E556C39408503FAF56AE57EE75F008E8
:100A8000A424EDF582E4340EF583E5822FF582E4AB
:100A90003583F583E493FFEFF4F5807F017E001248
:100AA0000FB17580FFAFE87801EF08800103D8FD32
:100AB000FF8FE8055680BA055880AC0557809E0523
:100AC00055808D805E75E8FE755500E555C394042C
:100AD0005051755700E557C394085043755800E5C9
:100AE00058C3940A5035755600E556C394085027EC
:100AF000AD56AF57120B33EFF4F5807F017E001235
:100B00000FB17580FFAFE87801EF08800123D8FDB1
:100B1000FF8FE8055680D2055880C4055780B6057A
:100B20005580A8E549B40B047F008004E54904FF23
:020B30008F49EB
:010B320022A0
:100C9800755000754F00754E00754D00AF4A7409C8
:100CA8002FF8E6FFEFD394004063AF4A74092FF89A
:100CB800E6FFEF25E024DBF582E4340EF583E493C8
:100CC800F54B740193F54CAE4BAF4CE4FCFDE5508D
:100CD8002FF550E54F3EF54FE54E3DF54EE54D3CC1
:100CE800F54DE54C154CAE4B7002154BFFEF4E70B1
:100CF800F1B2907FE07E937D047C00AB50AA4FA9AF
:100D08004EA84DD3120F7A40938057808F900EDDF6
:100D1800E493F54B740193F54CAE4BAF4CE4FCFDFA
:100D2800E5502FF550E54F3EF54FE54E3DF54EE5C4
:100D38004D3CF54DE54C154CAE4B7002154BFFEF95
:100D48004E70F1007FE07E937D047C00AB50AA4F8B
:100D5800A94EA84DD3120F7A5003020CA4800302A7
:100D68000CA4E54AC3943F40047F008004E54A048C
:030D7800FF8F4AA0
:010D7B002255
:100E7A007593007594FF20B2187F017E00120FB19E
:100E8A000508D3E50864809485400375080030B2EC
:100E9A00FDE508120F8B0EB6000EBA010EBE020E49
:100EAA00C3030EC8040ECD0500000ED315808019A9
:100EBA000580801575800080107580FF800B1208F0
:100ECA0000800675E8FF120C987F647E00120FB14D
:030EDA0080A422CF
:100D8800020E7AE493A3F8E493A34003F68001F2F9
:100D980008DFF48029E493A3F85407240CC8C3336C
:100DA800C4540F4420C8834004F456800146F6DF3B
:100DB800E4800B0102040810204080900F2DE47E8F
:100DC800019360BCA3FF543F30E509541FFEE49330
:100DD800A360010ECF54C025E060A840B8E493A3F7
:100DE800FAE493A3F8E493A3C8C582C8CAC583CA22
:100DF800F0A3C8C582C8CAC583CADFE9DEE780BEDA
:010F79000077
:100F7A00EB9FF5F0EA9E42F0E99D42F0E89C45F0CD
:010F8A002244
:100F8B00D083D082F8E4937012740193700DA3A3F5
:100F9B0093F8740193F5828883E473740293686009
:060FAB00EFA3A3A380DF09
:00000001FF
