:03000000020D20CE
:0C0D2000787FE4F6D8FD758166020D674F
:100EDC00021001D701A3018C0160013A0115010830
:100EEC00008BEF3C18A0C00000DB6F3C1828D00032
:100EFC00104B5F3C2848D000534F3C1828489000BA
:100F0C00938FFC382850E00093CF3C3848D0200019
:100F1C00035FBC78C830000000030F7C58E0000071
:100F2C00204009050303000402020001020304052A
:100F3C000505000503030004020200010305050377
:100F4C000000000202020202030400030303030375
:100F5C00040500050303000402020001030505015A
:0C0F6C00000000010800014900014A00DB
:040FB0008E5D8F5E65
:100FB400E55E155EAE5D7002155DFFEF4E6019755E
:100FC4005F037560B6E5601560AE5F7002155FFF84
:080FD400EF4E60DC80EF80D8D5
:010FDC0022F2
:100DAC008F66E5665402FFEFC43354E0FFE56654EA
:100DBC0001FEEEC43333335480FEEE4FFFE5665430
:100DCC0004FEEE33333354F8FEEE4FFFE566540861
:100DDC00FEEE25E0FEEE4FFFE5665410FEEEC3136B
:100DEC00FEEE4FFFE5665420FEEE131313541FFE68
:100DFC00EE4FFFE5665440FEEEC4135407FEEE4F73
:100E0C00FFE5665480FEEEC41313135401FEEE4F3F
:020E1C00FF22B3
:1009AB008F648D65AF64EF75F008A424EDF582E4D8
:1009BB00340EF583E493FFAE65EFA806088002C3FF
:1009CB0013D8FCFFEF5401FFEF25E0FFAE64EE758B
:1009DB00F008A424ECF582E4340EF583E493FEAD29
:1009EB0065EEA805088002C313D8FCFEEE5401FE89
:1009FB00EF4EFFAE64EE75F008A424EEF582E434FE
:100A0B000EF583E493FEAD65EEA805088002C313D3
:100A1B00D8FCFEEE5401FEEE25E025E0FEEE4FFF86
:100A2B00AE64EE75F008A424EFF582E4340EF58382
:100A3B00E493FEAD65EEA805088002C313D8FCFE57
:100A4B00EE5401FEEE33333354F8FEEE4FFFAE643B
:100A5B00EE75F008A424F0F582E4340EF583E493EC
:100A6B00FEAD65EEA805088002C313D8FCFEEE545C
:100A7B0001FEEEC454F0FEEE4FFFAE64EE75F008CF
:100A8B00A424F1F582E4340EF583E493FEAD65EE18
:100A9B00A805088002C313D8FCFEEE5401FEEEC479
:100AAB003354E0FEEE4FFFAE64EE75F008A424F273
:100ABB00F582E4340EF583E493FEAD65EEA80508EC
:100ACB008002C313D8FCFEEE5401FEEEC433335444
:100ADB00C0FEEE4FFFAE64EE75F008A424F3F58272
:100AEB00E4340EF583E493FEAD65EEA805088002B1
:100AFB00C313D8FCFEEE5401FEEEC43333335480E3
:050B0B00FEEE4FFF2289
:060E81008F4B8D4C8B4DE0
:100E8700755100C3E54F6480F8E55164809850447C
:100E9700E54D8551F0A4FFEF254BFF7480A80708A7
:100EA7008002C313D8FCFFEFF4F5E8E54E8551F057
:100EB700A4FFEF254CFF7401A807088002C333D8AD
:100EC700FCFFEFF4F580AF50EF3395E0FE120FB063
:040ED700055180AF92
:010EDB0022F4
:020B10008F58FC
:100B1200E55830E0047FFE80027F7F8FE8755C003D
:100B2200C3E55C648094844003020C3B755A00C3A5
:100B3200E55A648094884003020C36755B00C3E575
:100B42005B6480948A4003020C31755900C3E559F5
:100B5200648094884003020C2CE558120F8A0B70B3
:100B6200000BA6010BDF020BEF0300000BFAAF5ADA
:100B7200EF3395E0FEEF7803C333CE33CED8F9FFDF
:100B820074EC2FF582740E3EF583AF59EF3395E086
:100B9200FEE5822FF582E5833EF583E493FFEFF4D1
:100BA200F5808054AF5AEF3395E0FEEF7803C333FC
:100BB200CE33CED8F9FF74EC2FF582740E3EF58356
:100BC200AF59EF3395E0FEE5822FF582E5833EF5DE
:100BD20083E493FF120DACEFF4F580801BAD59AFA7
:100BE2005A1209AB120DACEFF4F580800BAD59AF80
:100BF2005A1209ABEFF4F5807F017E00120FB07537
:100C020080FFE55830E010AFE87801EF088001235B
:100C1200D8FDFF8FE8800EAFE87801EF088001036E
:100C2200D8FDFF8FE80559020B4F055B020B40050B
:090C32005A020B31055C020B2291
:010C3B002296
:1008000075610AE549120F8A083300084801085D3E
:1008100002087203088704089C0508B10608C60789
:1008200008DB0808E30908EB0A08F30B08FB0C00D7
:1008300000099B754E00754F088561507BFF7D0058
:100840007F07120E8102099B754E01754F08856165
:10085000507B007D007F00120E8102099B754E00C7
:10086000754F088561507B017D077F00120E810264
:10087000099B754EFF754F088561507B007D077F92
:1008800007120E8102099B754E01754F0885615054
:100890007BFF7D007F07120E8102099B754E00755C
:1008A0004F088561507B017D077F00120E81020990
:1008B0009B754EFF754F088561507BFF7D077F0755
:1008C000120E8102099B754E00754F088561507BA1
:1008D000017D007F00120E8102099B7F01120B1027
:1008E00002099B7F02120B1002099B7F00120B1062
:1008F00002099B7F03120B1002099B75620075634E
:1009000001C374079562FF754E00C374089562FEBB
:10091000C3EE9562F54F8561507BFFAD62120E818B
:10092000754E01C374089562FFC3EF9562F54F855C
:1009300061507B00AD62AF62120E81C37407956295
:10094000FD754E00C374089562FFC3EF9562F54FC5
:100950008561507B01AF62120E81C374079562FFFF
:10096000C374079562FD754EFFC374089562FEC39C
:10097000EE9562F54F8561507B00120E81E563258F
:1009800062F562C3E5626480948440037563FFD3BB
:10099000E5626480947F4003020901E549B40C04D8
:0A09A0007F008004E54904FF8F4941
:0109AA00222A
:100C3C00755700755600755500755400AF4A740908
:100C4C002FF8E6FFEFD394004063AF4A74092FF8F6
:100C5C00E6FFEF25E024DAF582E4340EF583E49325
:100C6C00F552740193F553AE52AF53E4FCFDE557C6
:100C7C002FF557E5563EF556E5553DF555E5543CF3
:100C8C00F554E5531553AE5270021552FFEF4E70EA
:100C9C00F1B2907FE07E937D047C00AB57AA56A9FD
:100CAC0055A854D3120F7940938057808F900EDC47
:100CBC00E493F552740193F553AE52AF53E4FCFD3B
:100CCC00E5572FF557E5563EF556E5553DF555E5F7
:100CDC00543CF554E5531553AE5270021552FFEFC8
:100CEC004E70F1007FE07E937D047C00AB57AA56DA
:100CFC00A955A854D3120F795003020C4880030253
:100D0C000C48E54AC3943F40047F008004E54A0444
:030D1C00FF8F4AFC
:010D1F0022B1
:100E1E007593007594FF20B2187F017E00120FB0FB
:100E2E000508D3E50864809485400375080030B248
:100E3E00FDE508120F8A0E5A000E5E010E62020EBA
:100E4E0067030E6C040E710500000E771580801975
:100E5E000580801575800080107580FF800B12084C
:100E6E0000800675E8FF120C3C7F647E00120FB006
:030E7E0080A4222B
:100D2C00020E1EE493A3F8E493A34003F68001F2B1
:100D3C0008DFF48029E493A3F85407240CC8C333C8
:100D4C00C4540F4420C8834004F456800146F6DF97
:100D5C00E4800B0102040810204080900F2CE47EEC
:100D6C00019360BCA3FF543F30E509541FFEE4938C
:100D7C00A360010ECF54C025E060A840B8E493A353
:100D8C00FAE493A3F8E493A3C8C582C8CAC583CA7E
:100D9C00F0A3C8C582C8CAC583CADFE9DEE780BE36
:010F78000078
:100F7900EB9FF5F0EA9E42F0E99D42F0E89C45F0CE
:010F89002245
:100F8A00D083D082F8E4937012740193700DA3A3F6
:100F9A0093F8740193F5828883E47374029368600A
:060FAA00EFA3A3A380DF0A
:00000001FF
